{
  "contractName": "CertificateVerification",
  "abi": [
    {
      "inputs": [
        {
          "internalType": "string",
          "name": "",
          "type": "string"
        }
      ],
      "name": "certificates",
      "outputs": [
        {
          "internalType": "string",
          "name": "certHash",
          "type": "string"
        },
        {
          "internalType": "bool",
          "name": "exists",
          "type": "bool"
        }
      ],
      "stateMutability": "view",
      "type": "function",
      "constant": true
    },
    {
      "inputs": [
        {
          "internalType": "string",
          "name": "certId",
          "type": "string"
        },
        {
          "internalType": "string",
          "name": "hash",
          "type": "string"
        }
      ],
      "name": "issueCertificate",
      "outputs": [],
      "stateMutability": "nonpayable",
      "type": "function"
    },
    {
      "inputs": [
        {
          "internalType": "string",
          "name": "certId",
          "type": "string"
        },
        {
          "internalType": "string",
          "name": "hash",
          "type": "string"
        }
      ],
      "name": "verifyCertificate",
      "outputs": [
        {
          "internalType": "bool",
          "name": "",
          "type": "bool"
        }
      ],
      "stateMutability": "view",
      "type": "function",
      "constant": true
    }
  ],
  "bytecode": "0x608060405234801561001057600080fd5b50610850806100206000396000f3fe608060405234801561001057600080fd5b50600436106100415760003560e01c8063211bbe71146100465780632751f71b146100625780638f2b91ea14610092575b600080fd5b610060600480360381019061005b9190610446565b6100c3565b005b61007c60048036038101906100779190610446565b6101ac565b6040516100899190610618565b60405180910390f35b6100ac60048036038101906100a79190610405565b61022b565b6040516100ba929190610633565b60405180910390f35b6000826040516100d39190610601565b908152602001604051809103902060010160009054906101000a900460ff1615610132576040517f08c379a000000000000000000000000000000000000000000000000000000000815260040161012990610663565b60405180910390fd5b60405180604001604052808281526020016001151581525060008360405161015a9190610601565b908152602001604051809103902060008201518160000190805190602001906101849291906102fa565b5060208201518160010160006101000a81548160ff0219169083151502179055509050505050565b600080836040516101bd9190610601565b908152602001604051809103902060010160009054906101000a900460ff168015610223575081805190602001206000846040516101fb9190610601565b908152602001604051809103902060000160405161021991906105ea565b6040518091039020145b905092915050565b60008180516020810182018051848252602083016020850120818352809550505050505060009150905080600001805461026490610779565b80601f016020809104026020016040519081016040528092919081815260200182805461029090610779565b80156102dd5780601f106102b2576101008083540402835291602001916102dd565b820191906000526020600020905b8154815290600101906020018083116102c057829003601f168201915b5050505050908060010160009054906101000a900460ff16905082565b82805461030690610779565b90600052602060002090601f016020900481019282610328576000855561036f565b82601f1061034157805160ff191683800117855561036f565b8280016001018555821561036f579182015b8281111561036e578251825591602001919060010190610353565b5b50905061037c9190610380565b5090565b5b80821115610399576000816000905550600101610381565b5090565b60006103b06103ab846106b4565b610683565b9050828152602081018484840111156103c857600080fd5b6103d3848285610737565b509392505050565b600082601f8301126103ec57600080fd5b81356103fc84826020860161039d565b91505092915050565b60006020828403121561041757600080fd5b600082013567ffffffffffffffff81111561043157600080fd5b61043d848285016103db565b91505092915050565b6000806040838503121561045957600080fd5b600083013567ffffffffffffffff81111561047357600080fd5b61047f858286016103db565b925050602083013567ffffffffffffffff81111561049c57600080fd5b6104a8858286016103db565b9150509250929050565b6104bb8161072b565b82525050565b600081546104ce81610779565b6104d88186610704565b945060018216600081146104f3576001811461050457610537565b60ff19831686528186019350610537565b61050d856106e4565b60005b8381101561052f57815481890152600182019150602081019050610510565b838801955050505b50505092915050565b600061054b826106f9565b610555818561070f565b9350610565818560208601610746565b61056e81610809565b840191505092915050565b6000610584826106f9565b61058e8185610720565b935061059e818560208601610746565b80840191505092915050565b60006105b7601a8361070f565b91507f436572746966696361746520616c7265616479206578697374730000000000006000830152602082019050919050565b60006105f682846104c1565b915081905092915050565b600061060d8284610579565b915081905092915050565b600060208201905061062d60008301846104b2565b92915050565b6000604082019050818103600083015261064d8185610540565b905061065c60208301846104b2565b9392505050565b6000602082019050818103600083015261067c816105aa565b9050919050565b6000604051905081810181811067ffffffffffffffff821117156106aa576106a96107da565b5b8060405250919050565b600067ffffffffffffffff8211156106cf576106ce6107da565b5b601f19601f8301169050602081019050919050565b60008190508160005260206000209050919050565b600081519050919050565b600081905092915050565b600082825260208201905092915050565b600081905092915050565b60008115159050919050565b82818337600083830152505050565b60005b83811015610764578082015181840152602081019050610749565b83811115610773576000848401525b50505050565b6000600282049050600182168061079157607f821691505b602082108114156107a5576107a46107ab565b5b50919050565b7f4e487b7100000000000000000000000000000000000000000000000000000000600052602260045260246000fd5b7f4e487b7100000000000000000000000000000000000000000000000000000000600052604160045260246000fd5b6000601f19601f830116905091905056fea2646970667358221220aa51ffd896aea0f035a43f46d55854cacc6c4c6246e77c07cc91852def9a583564736f6c63430008000033",
  "immutableReferences": {},
  "source": "// SPDX-License-Identifier: MIT\r\npragma solidity ^0.8.0;\r\n\r\ncontract CertificateVerification {\r\n\r\n    struct Certificate {\r\n        string certHash;\r\n        bool exists;\r\n    }\r\n\r\n    mapping(string => Certificate) public certificates;\r\n\r\n    function issueCertificate(string memory certId, string memory hash) public {\r\n        require(!certificates[certId].exists, \"Certificate already exists\");\r\n        certificates[certId] = Certificate(hash, true);\r\n    }\r\n\r\n    function verifyCertificate(string memory certId, string memory hash)\r\n        public view returns (bool)\r\n    {\r\n        return certificates[certId].exists &&\r\n               keccak256(bytes(certificates[certId].certHash)) ==\r\n               keccak256(bytes(hash));\r\n    }\r\n}\r\n",
  "sourcePath": "C:\\Projects\\Certificate Verification System Using Blockchain\\blockchain\\contracts\\CertificateVerification.sol",
  "compiler": {
    "name": "solc",
    "version": "0.8.0+commit.c7dfd78e.Emscripten.clang"
  },
  "schemaVersion": "3.4.16",
  "updatedAt": "2026-01-08T10:43:46.403Z",
  "networkType": "ethereum",
  "devdoc": {
    "kind": "dev",
    "methods": {},
    "version": 1
  },
  "userdoc": {
    "kind": "user",
    "methods": {},
    "version": 1
  }
}